:02062D0005DFE7
:02062F0005F5CF
:040003007F4EDFFE4F
:0100070022D6
:100583007D027C00ED1D70011C144C70F7EF1F7091
:06059300011E144E70EA87
:01059900223F
:10059A007D0C7C00ED1D70011C144C70F7EF1F7070
:0605AA00011E144E70EA70
:0105B0002228
:1005B1007D187C00ED1D70011C144C70F7EF1F704D
:0605C100011E144E70EA59
:0105C7002211
:1005C8007D607C09ED1D70011C144C70F7EF1F70E5
:0605D800011E144E70EA42
:0105DE0022FA
:1002E900EFD3940740037F012212053DFED3940307
:1002F90040037F0222EF7041EE700B90000112055E
:1003090056F45293529412053DB4010B9000011218
:1003190005564293F4529412053DFEB4020A900028
:100329000112055642934294EEB4030D9000011256
:100339000556FEF45293EE4294EF640170431205A0
:100349003DFE700B900001120556F452915292EE47
:10035900B4010B9000011205564291F45292120514
:100369003DB4020A900001120556429142921205CB
:100379003DB4030D900001120556FEF45291EE4270
:1003890092EF6402704312053DFE700B900001125A
:100399000556F452955296EEB4010B9000011205E0
:1003A900564295F4529612053DB4020A9000011284
:1003B90005564295429612053DB4030D900001126F
:1003C9000556FEF45295EE4296EF6403704312050A
:1003D9003DFE700B900001120556F452B152B2EE77
:1003E900B4010B90000112055642B1F452B2120544
:1003F9003DB4020A90000112055642B142B21205FB
:100409003DB4030D900001120556FEF452B1EE42BF
:10041900B2EF6404704312053DFE700B90000112A7
:100429000556F452B352B4EEB4010B900001120513
:100439005642B3F452B412053DB4020A90000112B7
:10044900055642B342B412053DB4030D90000112A2
:100459000556FEF452B3EE42B4EF6405704312053B
:100469003DFE700B900001120556F452C952CAEEB6
:10047900B4010B90000112055642C9F452CA120583
:100489003DB4020A90000112055642C942CA12053A
:100499003DB4030D900001120556FEF452C9EE4217
:1004A900CAEF6406704312053DFE700B90000112FD
:1004B9000556F452CB52CCEEB4010B900001120553
:1004C9005642CBF452CC12053DB4020A90000112F7
:1004D900055642CB42CC12053DB4030D90000112E2
:1004E9000556FEF452CBEE42CCEF64077043120579
:1004F9003DFF700B900001120556F452E152E2EFF4
:10050900B4010B90000112055642E1F452E21205C2
:100519003DB4020A90000112055642E142E2120579
:100529003DB4030D900001120556FFF452E1EF426C
:04053900E27F00223B
:1005DF00C2AF7F01120178EF70F8E4FF120201EF52
:0605EF0070F8D2AF80FE9F
:1005F500E4F50E120008E4FBFAAD0E7F8012028AC4
:06060500B2C5050E80F0F5
:03000B00020013DD
:10000E00C2AF80FE3212001285D00B75D008AAE066
:10001E00EC2416F8E6BC010274FFC39581B41400FB
:10002E0040DE7902781116E608700BC2AFE630E1B9
:10003E00034418F6D2AF08D9EDEA8BD03000012276
:10004E00D50DFCC0E0C0D0C0F0C083C082C000C0DF
:10005E0001C002C003C004C005C006C007E50C23E2
:10006E002412F87440C2AF46F6D2AFD200E50CFFB0
:10007E00232412F80F0808BF02047F007812E6301E
:10008E00E4F200E50CC39F5020050C7415250CF806
:10009E00E6FDA68108E6AE0CBE010274FFCDF8E8BF
:1000AE006D60E008E6C0E080F6E50CD39F4027E5E2
:1000BE000C2416F8E6AE0CBE010274FFFD18E6CD58
:1000CE00F8E5816D6006D0E0F61880F5E50C241594
:1000DE00C8F6150C80D3750D01E50C232412F87F9C
:1000EE0004C2AFE610E61E30E00310E20C7F0030D3
:1000FE00E10730E3047F0854F4547CC6D2AF548039
:04010E004207C200E2
:1001120022F6D2AFD007D006D005D004D003D00249
:10012200D001D000D082D083D0F0D0D0D0E0C200B5
:10013200227815A68174016006FF0876FFDFFB7F37
:1001420002E47811F608F608DFFA781276309006A3
:100152002D740193C0E0E493C0E0750D01C28C538D
:1001620089F0D2A9438903438E80758A40758CA297
:06017200D28CD2AF220185
:10017800EFD3940140037FFF2274122F2FF8E6205B
:10018800E5F4C2AFE64430F6D2AFAE0CEEC39F50F2
:10019800210E74152EF8E6F908E618BE010274FF60
:1001A800FDED69600909E71919F7090980F31616C1
:1001B80080DAEED39F400405810581EED39F40226B
:1001C80074152EF808E6F9EEB50C02A98118060692
:1001D800E6FDED6960091919E70909F71980F31EA9
:1001E80080D9EF2415F8E604F8EF2F0490062D9334
:0901F800F608EF2F93F67F0022B8
:10020100EFD3940140037FFF22EF232412F8E6305D
:10021100E5F4C2AFE6548CF6D2AFE50CB5070A742B
:10022100152FF8E6F581020079502E74162FF8E6A5
:10023100BF010274FFFD18E6F974152FF8FBE6FC07
:10024100E96C6008A805E7F61D1980F4A803A60566
:100251001FE50CB507E37F002274162FF8E6FD18A1
:1002610086010F74152FF8A601088604E50CB50761
:1002710002AC81ED6C60080D09A805E6F780F4E594
:090281000CB507DE89817F002223
:10028A008FF0E4FFFEE50C232411F8C2A930F70D24
:10029A007F08E6600B2DF660325030800730F10699
:1002AA00EDF660277E020830F010C2AFE610E725AF
:1002BA000E30E20CD2AF7F048014C2AFE610E7150D
:1002CA0054EC4EF6D2AFD2A90200797F0808EF4467
:0F02DA0083F4C2AF56C6D2AFD2A954804FFF22D1
:10060B00750F037510607B007A00790F7F0412025F
:05061B00E9D2C5D2C6C2
:0106200022B7
:0300080002060BE2
:03000000020621D4
:0C062100787FE4F6D8FD758120020133DB
:10053D00BB010689828A83E0225002E722BBFE02BC
:09054D00E32289828A83E49322EF
:10055600BB010CE58229F582E5833AF583E022505A
:1005660006E92582F8E622BBFE06E92582F8E222A4
:0D057600E58229F582E5833AF583E49322BE
:00000001FF
